{
  "contractName": "Dex",
  "abi": [
    {
      "inputs": [],
      "stateMutability": "nonpayable",
      "type": "constructor"
    },
    {
      "anonymous": false,
      "inputs": [
        {
          "indexed": false,
          "internalType": "uint256",
          "name": "tradeId",
          "type": "uint256"
        },
        {
          "indexed": false,
          "internalType": "uint256",
          "name": "orderId",
          "type": "uint256"
        },
        {
          "indexed": true,
          "internalType": "bytes32",
          "name": "ticker",
          "type": "bytes32"
        },
        {
          "indexed": true,
          "internalType": "address",
          "name": "trader1",
          "type": "address"
        },
        {
          "indexed": true,
          "internalType": "address",
          "name": "trader2",
          "type": "address"
        },
        {
          "indexed": false,
          "internalType": "uint256",
          "name": "amount",
          "type": "uint256"
        },
        {
          "indexed": false,
          "internalType": "uint256",
          "name": "price",
          "type": "uint256"
        },
        {
          "indexed": false,
          "internalType": "uint256",
          "name": "date",
          "type": "uint256"
        }
      ],
      "name": "NewTrade",
      "type": "event"
    },
    {
      "inputs": [],
      "name": "admin",
      "outputs": [
        {
          "internalType": "address",
          "name": "",
          "type": "address"
        }
      ],
      "stateMutability": "view",
      "type": "function",
      "constant": true
    },
    {
      "inputs": [],
      "name": "nextOrderId",
      "outputs": [
        {
          "internalType": "uint256",
          "name": "",
          "type": "uint256"
        }
      ],
      "stateMutability": "view",
      "type": "function",
      "constant": true
    },
    {
      "inputs": [],
      "name": "nextTradeId",
      "outputs": [
        {
          "internalType": "uint256",
          "name": "",
          "type": "uint256"
        }
      ],
      "stateMutability": "view",
      "type": "function",
      "constant": true
    },
    {
      "inputs": [
        {
          "internalType": "bytes32",
          "name": "",
          "type": "bytes32"
        },
        {
          "internalType": "uint256",
          "name": "",
          "type": "uint256"
        },
        {
          "internalType": "uint256",
          "name": "",
          "type": "uint256"
        }
      ],
      "name": "orderBook",
      "outputs": [
        {
          "internalType": "uint256",
          "name": "id",
          "type": "uint256"
        },
        {
          "internalType": "address",
          "name": "trader",
          "type": "address"
        },
        {
          "internalType": "enum Dex.Side",
          "name": "side",
          "type": "uint8"
        },
        {
          "internalType": "bytes32",
          "name": "ticker",
          "type": "bytes32"
        },
        {
          "internalType": "uint256",
          "name": "amount",
          "type": "uint256"
        },
        {
          "internalType": "uint256",
          "name": "filled",
          "type": "uint256"
        },
        {
          "internalType": "uint256",
          "name": "price",
          "type": "uint256"
        },
        {
          "internalType": "uint256",
          "name": "date",
          "type": "uint256"
        }
      ],
      "stateMutability": "view",
      "type": "function",
      "constant": true
    },
    {
      "inputs": [
        {
          "internalType": "uint256",
          "name": "",
          "type": "uint256"
        }
      ],
      "name": "tokenList",
      "outputs": [
        {
          "internalType": "bytes32",
          "name": "",
          "type": "bytes32"
        }
      ],
      "stateMutability": "view",
      "type": "function",
      "constant": true
    },
    {
      "inputs": [
        {
          "internalType": "bytes32",
          "name": "",
          "type": "bytes32"
        }
      ],
      "name": "tokens",
      "outputs": [
        {
          "internalType": "bytes32",
          "name": "ticker",
          "type": "bytes32"
        },
        {
          "internalType": "address",
          "name": "tokenAddress",
          "type": "address"
        }
      ],
      "stateMutability": "view",
      "type": "function",
      "constant": true
    },
    {
      "inputs": [
        {
          "internalType": "address",
          "name": "",
          "type": "address"
        },
        {
          "internalType": "bytes32",
          "name": "",
          "type": "bytes32"
        }
      ],
      "name": "traderBalances",
      "outputs": [
        {
          "internalType": "uint256",
          "name": "",
          "type": "uint256"
        }
      ],
      "stateMutability": "view",
      "type": "function",
      "constant": true
    },
    {
      "inputs": [
        {
          "internalType": "bytes32",
          "name": "ticker",
          "type": "bytes32"
        },
        {
          "internalType": "enum Dex.Side",
          "name": "side",
          "type": "uint8"
        }
      ],
      "name": "getOrders",
      "outputs": [
        {
          "components": [
            {
              "internalType": "uint256",
              "name": "id",
              "type": "uint256"
            },
            {
              "internalType": "address",
              "name": "trader",
              "type": "address"
            },
            {
              "internalType": "enum Dex.Side",
              "name": "side",
              "type": "uint8"
            },
            {
              "internalType": "bytes32",
              "name": "ticker",
              "type": "bytes32"
            },
            {
              "internalType": "uint256",
              "name": "amount",
              "type": "uint256"
            },
            {
              "internalType": "uint256",
              "name": "filled",
              "type": "uint256"
            },
            {
              "internalType": "uint256",
              "name": "price",
              "type": "uint256"
            },
            {
              "internalType": "uint256",
              "name": "date",
              "type": "uint256"
            }
          ],
          "internalType": "struct Dex.Order[]",
          "name": "",
          "type": "tuple[]"
        }
      ],
      "stateMutability": "view",
      "type": "function",
      "constant": true
    },
    {
      "inputs": [],
      "name": "getTokens",
      "outputs": [
        {
          "components": [
            {
              "internalType": "bytes32",
              "name": "ticker",
              "type": "bytes32"
            },
            {
              "internalType": "address",
              "name": "tokenAddress",
              "type": "address"
            }
          ],
          "internalType": "struct Dex.Token[]",
          "name": "",
          "type": "tuple[]"
        }
      ],
      "stateMutability": "view",
      "type": "function",
      "constant": true
    },
    {
      "inputs": [
        {
          "internalType": "bytes32",
          "name": "ticker",
          "type": "bytes32"
        },
        {
          "internalType": "address",
          "name": "tokenAddress",
          "type": "address"
        }
      ],
      "name": "addToken",
      "outputs": [],
      "stateMutability": "nonpayable",
      "type": "function"
    },
    {
      "inputs": [
        {
          "internalType": "uint256",
          "name": "amount",
          "type": "uint256"
        },
        {
          "internalType": "bytes32",
          "name": "ticker",
          "type": "bytes32"
        }
      ],
      "name": "deposit",
      "outputs": [],
      "stateMutability": "nonpayable",
      "type": "function"
    },
    {
      "inputs": [
        {
          "internalType": "uint256",
          "name": "amount",
          "type": "uint256"
        },
        {
          "internalType": "bytes32",
          "name": "ticker",
          "type": "bytes32"
        }
      ],
      "name": "withdraw",
      "outputs": [],
      "stateMutability": "nonpayable",
      "type": "function"
    },
    {
      "inputs": [
        {
          "internalType": "bytes32",
          "name": "ticker",
          "type": "bytes32"
        },
        {
          "internalType": "uint256",
          "name": "amount",
          "type": "uint256"
        },
        {
          "internalType": "uint256",
          "name": "price",
          "type": "uint256"
        },
        {
          "internalType": "enum Dex.Side",
          "name": "side",
          "type": "uint8"
        }
      ],
      "name": "createLimitOrder",
      "outputs": [],
      "stateMutability": "nonpayable",
      "type": "function"
    },
    {
      "inputs": [
        {
          "internalType": "bytes32",
          "name": "ticker",
          "type": "bytes32"
        },
        {
          "internalType": "uint256",
          "name": "amount",
          "type": "uint256"
        },
        {
          "internalType": "enum Dex.Side",
          "name": "side",
          "type": "uint8"
        }
      ],
      "name": "createMarketOrder",
      "outputs": [],
      "stateMutability": "nonpayable",
      "type": "function"
    }
  ],
  "bytecode": "0x608060405234801561001057600080fd5b5033600460006101000a81548173ffffffffffffffffffffffffffffffffffffffff021916908373ffffffffffffffffffffffffffffffffffffffff16021790555061380b806100616000396000f3fe608060405234801561001057600080fd5b50600436106100ea5760003560e01c80639776aacf1161008c578063aa6ca80811610066578063aa6ca80814610277578063c9630cb014610295578063d9c0c950146102b1578063f851a440146102cd576100ea565b80639776aacf1461020f5780639ead72221461022b578063a8d2021a1461025b576100ea565b806372ce957e116100c857806372ce957e146101745780637f2c6246146101a4578063813ad083146101c0578063904194a3146101de576100ea565b80630bb431b6146100ef5780632a58b3301461012657806346e9658b14610144575b600080fd5b61010960048036038101906101049190612d2a565b6102eb565b60405161011d9897969594939291906133d5565b60405180910390f35b61012e61038a565b60405161013b91906133ba565b60405180910390f35b61015e60048036038101906101599190612c9f565b610390565b60405161016b9190613272565b60405180910390f35b61018e60048036038101906101899190612bd5565b610566565b60405161019b91906133ba565b60405180910390f35b6101be60048036038101906101b99190612cdb565b61058b565b005b6101c8611762565b6040516101d591906133ba565b60405180910390f35b6101f860048036038101906101f39190612c3a565b611768565b6040516102069291906132d1565b60405180910390f35b61022960048036038101906102249190612c63565b6117ac565b005b61024560048036038101906102409190612ddc565b6118fa565b60405161025291906132b6565b60405180910390f35b61027560048036038101906102709190612e05565b61191e565b005b61027f611b86565b60405161028c9190613294565b60405180910390f35b6102af60048036038101906102aa9190612e05565b611d77565b005b6102cb60048036038101906102c69190612d79565b611f4e565b005b6102d5612b13565b6040516102e291906131f7565b60405180910390f35b6003602052826000526040600020602052816000526040600020818154811061031357600080fd5b906000526020600020906007020160009250925050508060000154908060010160009054906101000a900473ffffffffffffffffffffffffffffffffffffffff16908060010160149054906101000a900460ff16908060020154908060030154908060040154908060050154908060060154905088565b60055481565b60606003600084815260200190815260200160002060008360018111156103e0577f4e487b7100000000000000000000000000000000000000000000000000000000600052602160045260246000fd5b8152602001908152602001600020805480602002602001604051908101604052809291908181526020016000905b8282101561055a578382906000526020600020906007020160405180610100016040529081600082015481526020016001820160009054906101000a900473ffffffffffffffffffffffffffffffffffffffff1673ffffffffffffffffffffffffffffffffffffffff1673ffffffffffffffffffffffffffffffffffffffff1681526020016001820160149054906101000a900460ff1660018111156104dd577f4e487b7100000000000000000000000000000000000000000000000000000000600052602160045260246000fd5b6001811115610515577f4e487b7100000000000000000000000000000000000000000000000000000000600052602160045260246000fd5b8152602001600282015481526020016003820154815260200160048201548152602001600582015481526020016006820154815250508152602001906001019061040e565b50505050905092915050565b6002602052816000526040600020602052806000526040600020600091509150505481565b82600073ffffffffffffffffffffffffffffffffffffffff1660008083815260200190815260200160002060010160009054906101000a900473ffffffffffffffffffffffffffffffffffffffff1673ffffffffffffffffffffffffffffffffffffffff161415610631576040517f08c379a00000000000000000000000000000000000000000000000000000000081526004016106289061339a565b60405180910390fd5b837f4441490000000000000000000000000000000000000000000000000000000000811415610695576040517f08c379a000000000000000000000000000000000000000000000000000000000815260040161068c9061333a565b60405180910390fd5b6001808111156106ce577f4e487b7100000000000000000000000000000000000000000000000000000000600052602160045260246000fd5b836001811115610707577f4e487b7100000000000000000000000000000000000000000000000000000000600052602160045260246000fd5b14156107a15783600260003373ffffffffffffffffffffffffffffffffffffffff1673ffffffffffffffffffffffffffffffffffffffff16815260200190815260200160002060008781526020019081526020016000205410156107a0576040517f08c379a00000000000000000000000000000000000000000000000000000000081526004016107979061335a565b60405180910390fd5b5b60006003600087815260200190815260200160002060008060018111156107f1577f4e487b7100000000000000000000000000000000000000000000000000000000600052602160045260246000fd5b86600181111561082a577f4e487b7100000000000000000000000000000000000000000000000000000000600052602160045260246000fd5b14610836576000610839565b60015b6001811115610871577f4e487b7100000000000000000000000000000000000000000000000000000000600052602160045260246000fd5b815260200190815260200160002090506000808690505b82805490508210801561089b5750600081115b156114055760008383815481106108db577f4e487b7100000000000000000000000000000000000000000000000000000000600052603260045260246000fd5b906000526020600020906007020160040154848481548110610926577f4e487b7100000000000000000000000000000000000000000000000000000000600052603260045260246000fd5b90600052602060002090600702016003015461094291906135d9565b905060008183116109535782610955565b815b9050808361096391906135d9565b92508085858154811061099f577f4e487b7100000000000000000000000000000000000000000000000000000000600052603260045260246000fd5b906000526020600020906007020160040160008282546109bf9190613529565b925050819055503373ffffffffffffffffffffffffffffffffffffffff16858581548110610a16577f4e487b7100000000000000000000000000000000000000000000000000000000600052603260045260246000fd5b906000526020600020906007020160010160009054906101000a900473ffffffffffffffffffffffffffffffffffffffff1673ffffffffffffffffffffffffffffffffffffffff168b7fdb0c486e680ba8026643e6a85f8d157b5e7bcd4b32b54d564542570a9eb20416600654898981548110610abc577f4e487b7100000000000000000000000000000000000000000000000000000000600052603260045260246000fd5b906000526020600020906007020160000154868b8b81548110610b08577f4e487b7100000000000000000000000000000000000000000000000000000000600052603260045260246000fd5b90600052602060002090600702016005015442604051610b2c959493929190613453565b60405180910390a4600180811115610b6d577f4e487b7100000000000000000000000000000000000000000000000000000000600052602160045260246000fd5b886001811115610ba6577f4e487b7100000000000000000000000000000000000000000000000000000000600052602160045260246000fd5b1415610efc5780600260003373ffffffffffffffffffffffffffffffffffffffff1673ffffffffffffffffffffffffffffffffffffffff16815260200190815260200160002060008c81526020019081526020016000206000828254610c0c91906135d9565b92505081905550848481548110610c4c577f4e487b7100000000000000000000000000000000000000000000000000000000600052603260045260246000fd5b90600052602060002090600702016005015481610c69919061357f565b600260003373ffffffffffffffffffffffffffffffffffffffff1673ffffffffffffffffffffffffffffffffffffffff16815260200190815260200160002060007f444149000000000000000000000000000000000000000000000000000000000081526020019081526020016000206000828254610ce89190613529565b925050819055508060026000878781548110610d2d577f4e487b7100000000000000000000000000000000000000000000000000000000600052603260045260246000fd5b906000526020600020906007020160010160009054906101000a900473ffffffffffffffffffffffffffffffffffffffff1673ffffffffffffffffffffffffffffffffffffffff1673ffffffffffffffffffffffffffffffffffffffff16815260200190815260200160002060008c81526020019081526020016000206000828254610db99190613529565b92505081905550848481548110610df9577f4e487b7100000000000000000000000000000000000000000000000000000000600052603260045260246000fd5b90600052602060002090600702016005015460026000878781548110610e48577f4e487b7100000000000000000000000000000000000000000000000000000000600052603260045260246000fd5b906000526020600020906007020160010160009054906101000a900473ffffffffffffffffffffffffffffffffffffffff1673ffffffffffffffffffffffffffffffffffffffff1673ffffffffffffffffffffffffffffffffffffffff16815260200190815260200160002060007f444149000000000000000000000000000000000000000000000000000000000081526020019081526020016000206000828254610ef491906135d9565b925050819055505b60006001811115610f36577f4e487b7100000000000000000000000000000000000000000000000000000000600052602160045260246000fd5b886001811115610f6f577f4e487b7100000000000000000000000000000000000000000000000000000000600052602160045260246000fd5b14156113d857848481548110610fae577f4e487b7100000000000000000000000000000000000000000000000000000000600052603260045260246000fd5b90600052602060002090600702016005015481610fcb919061357f565b600260003373ffffffffffffffffffffffffffffffffffffffff1673ffffffffffffffffffffffffffffffffffffffff16815260200190815260200160002060007f4441490000000000000000000000000000000000000000000000000000000000815260200190815260200160002054101561107d576040517f08c379a00000000000000000000000000000000000000000000000000000000081526004016110749061337a565b60405180910390fd5b80600260003373ffffffffffffffffffffffffffffffffffffffff1673ffffffffffffffffffffffffffffffffffffffff16815260200190815260200160002060008c815260200190815260200160002060008282546110dd9190613529565b9250508190555084848154811061111d577f4e487b7100000000000000000000000000000000000000000000000000000000600052603260045260246000fd5b9060005260206000209060070201600501548161113a919061357f565b600260003373ffffffffffffffffffffffffffffffffffffffff1673ffffffffffffffffffffffffffffffffffffffff16815260200190815260200160002060007f4441490000000000000000000000000000000000000000000000000000000000815260200190815260200160002060008282546111b991906135d9565b9250508190555080600260008787815481106111fe577f4e487b7100000000000000000000000000000000000000000000000000000000600052603260045260246000fd5b906000526020600020906007020160010160009054906101000a900473ffffffffffffffffffffffffffffffffffffffff1673ffffffffffffffffffffffffffffffffffffffff1673ffffffffffffffffffffffffffffffffffffffff16815260200190815260200160002060008c8152602001908152602001600020600082825461128a91906135d9565b925050819055508484815481106112ca577f4e487b7100000000000000000000000000000000000000000000000000000000600052603260045260246000fd5b906000526020600020906007020160050154816112e7919061357f565b60026000878781548110611324577f4e487b7100000000000000000000000000000000000000000000000000000000600052603260045260246000fd5b906000526020600020906007020160010160009054906101000a900473ffffffffffffffffffffffffffffffffffffffff1673ffffffffffffffffffffffffffffffffffffffff1673ffffffffffffffffffffffffffffffffffffffff16815260200190815260200160002060007f4441490000000000000000000000000000000000000000000000000000000000815260200190815260200160002060008282546113d09190613529565b925050819055505b600660008154809291906113eb906136ae565b919050555083806113fb906136ae565b9450505050610888565b600091505b8280549050821080156114b05750828281548110611451577f4e487b7100000000000000000000000000000000000000000000000000000000600052603260045260246000fd5b90600052602060002090600702016003015483838154811061149c577f4e487b7100000000000000000000000000000000000000000000000000000000600052603260045260246000fd5b906000526020600020906007020160040154145b156117585760008290505b600184805490506114cc91906135d9565b81101561168957836001826114e19190613529565b81548110611518577f4e487b7100000000000000000000000000000000000000000000000000000000600052603260045260246000fd5b906000526020600020906007020184828154811061155f577f4e487b7100000000000000000000000000000000000000000000000000000000600052603260045260246000fd5b9060005260206000209060070201600082015481600001556001820160009054906101000a900473ffffffffffffffffffffffffffffffffffffffff168160010160006101000a81548173ffffffffffffffffffffffffffffffffffffffff021916908373ffffffffffffffffffffffffffffffffffffffff1602179055506001820160149054906101000a900460ff168160010160146101000a81548160ff0219169083600181111561163c577f4e487b7100000000000000000000000000000000000000000000000000000000600052602160045260246000fd5b021790555060028201548160020155600382015481600301556004820154816004015560058201548160050155600682015481600601559050508080611681906136ae565b9150506114bb565b50828054806116c1577f4e487b7100000000000000000000000000000000000000000000000000000000600052603160045260246000fd5b60019003818190600052602060002090600702016000808201600090556001820160006101000a81549073ffffffffffffffffffffffffffffffffffffffff02191690556001820160146101000a81549060ff021916905560028201600090556003820160009055600482016000905560058201600090556006820160009055505090558180611750906136ae565b92505061140a565b5050505050505050565b60065481565b60006020528060005260406000206000915090508060000154908060010160009054906101000a900473ffffffffffffffffffffffffffffffffffffffff16905082565b600460009054906101000a900473ffffffffffffffffffffffffffffffffffffffff1673ffffffffffffffffffffffffffffffffffffffff163373ffffffffffffffffffffffffffffffffffffffff161461183c576040517f08c379a00000000000000000000000000000000000000000000000000000000081526004016118339061331a565b60405180910390fd5b60405180604001604052808381526020018273ffffffffffffffffffffffffffffffffffffffff168152506000808481526020019081526020016000206000820151816000015560208201518160010160006101000a81548173ffffffffffffffffffffffffffffffffffffffff021916908373ffffffffffffffffffffffffffffffffffffffff16021790555090505060018290806001815401808255809150506001900390600052602060002001600090919091909150555050565b6001818154811061190a57600080fd5b906000526020600020016000915090505481565b80600073ffffffffffffffffffffffffffffffffffffffff1660008083815260200190815260200160002060010160009054906101000a900473ffffffffffffffffffffffffffffffffffffffff1673ffffffffffffffffffffffffffffffffffffffff1614156119c4576040517f08c379a00000000000000000000000000000000000000000000000000000000081526004016119bb9061339a565b60405180910390fd5b82600260003373ffffffffffffffffffffffffffffffffffffffff1673ffffffffffffffffffffffffffffffffffffffff1681526020019081526020016000206000848152602001908152602001600020541015611a57576040517f08c379a0000000000000000000000000000000000000000000000000000000008152600401611a4e906132fa565b60405180910390fd5b82600260003373ffffffffffffffffffffffffffffffffffffffff1673ffffffffffffffffffffffffffffffffffffffff16815260200190815260200160002060008481526020019081526020016000206000828254611ab791906135d9565b9250508190555060008083815260200190815260200160002060010160009054906101000a900473ffffffffffffffffffffffffffffffffffffffff1673ffffffffffffffffffffffffffffffffffffffff1663a9059cbb33856040518363ffffffff1660e01b8152600401611b2e929190613249565b602060405180830381600087803b158015611b4857600080fd5b505af1158015611b5c573d6000803e3d6000fd5b505050506040513d601f19601f82011682018060405250810190611b809190612c11565b50505050565b6060600060018054905067ffffffffffffffff811115611bcf577f4e487b7100000000000000000000000000000000000000000000000000000000600052604160045260246000fd5b604051908082528060200260200182016040528015611c0857816020015b611bf5612b39565b815260200190600190039081611bed5790505b50905060005b600180549050811015611d6f57604051806040016040528060008060018581548110611c63577f4e487b7100000000000000000000000000000000000000000000000000000000600052603260045260246000fd5b9060005260206000200154815260200190815260200160002060000154815260200160008060018581548110611cc2577f4e487b7100000000000000000000000000000000000000000000000000000000600052603260045260246000fd5b9060005260206000200154815260200190815260200160002060010160009054906101000a900473ffffffffffffffffffffffffffffffffffffffff1673ffffffffffffffffffffffffffffffffffffffff16815250828281518110611d51577f4e487b7100000000000000000000000000000000000000000000000000000000600052603260045260246000fd5b60200260200101819052508080611d67906136ae565b915050611c0e565b508091505090565b80600073ffffffffffffffffffffffffffffffffffffffff1660008083815260200190815260200160002060010160009054906101000a900473ffffffffffffffffffffffffffffffffffffffff1673ffffffffffffffffffffffffffffffffffffffff161415611e1d576040517f08c379a0000000000000000000000000000000000000000000000000000000008152600401611e149061339a565b60405180910390fd5b60008083815260200190815260200160002060010160009054906101000a900473ffffffffffffffffffffffffffffffffffffffff1673ffffffffffffffffffffffffffffffffffffffff166323b872dd3330866040518463ffffffff1660e01b8152600401611e8f93929190613212565b602060405180830381600087803b158015611ea957600080fd5b505af1158015611ebd573d6000803e3d6000fd5b505050506040513d601f19601f82011682018060405250810190611ee19190612c11565b5082600260003373ffffffffffffffffffffffffffffffffffffffff1673ffffffffffffffffffffffffffffffffffffffff16815260200190815260200160002060008481526020019081526020016000206000828254611f429190613529565b92505081905550505050565b83600073ffffffffffffffffffffffffffffffffffffffff1660008083815260200190815260200160002060010160009054906101000a900473ffffffffffffffffffffffffffffffffffffffff1673ffffffffffffffffffffffffffffffffffffffff161415611ff4576040517f08c379a0000000000000000000000000000000000000000000000000000000008152600401611feb9061339a565b60405180910390fd5b847f4441490000000000000000000000000000000000000000000000000000000000811415612058576040517f08c379a000000000000000000000000000000000000000000000000000000000815260040161204f9061333a565b60405180910390fd5b600180811115612091577f4e487b7100000000000000000000000000000000000000000000000000000000600052602160045260246000fd5b8360018111156120ca577f4e487b7100000000000000000000000000000000000000000000000000000000600052602160045260246000fd5b14156121685784600260003373ffffffffffffffffffffffffffffffffffffffff1673ffffffffffffffffffffffffffffffffffffffff1681526020019081526020016000206000888152602001908152602001600020541015612163576040517f08c379a000000000000000000000000000000000000000000000000000000000815260040161215a9061335a565b60405180910390fd5b612227565b8385612174919061357f565b600260003373ffffffffffffffffffffffffffffffffffffffff1673ffffffffffffffffffffffffffffffffffffffff16815260200190815260200160002060007f44414900000000000000000000000000000000000000000000000000000000008152602001908152602001600020541015612226576040517f08c379a000000000000000000000000000000000000000000000000000000000815260040161221d9061337a565b60405180910390fd5b5b6000600360008881526020019081526020016000206000856001811115612277577f4e487b7100000000000000000000000000000000000000000000000000000000600052602160045260246000fd5b815260200190815260200160002090508060405180610100016040528060055481526020013373ffffffffffffffffffffffffffffffffffffffff1681526020018660018111156122f1577f4e487b7100000000000000000000000000000000000000000000000000000000600052602160045260246000fd5b8152602001898152602001888152602001600081526020018781526020014281525090806001815401808255809150506001900390600052602060002090600702016000909190919091506000820151816000015560208201518160010160006101000a81548173ffffffffffffffffffffffffffffffffffffffff021916908373ffffffffffffffffffffffffffffffffffffffff16021790555060408201518160010160146101000a81548160ff021916908360018111156123de577f4e487b7100000000000000000000000000000000000000000000000000000000600052602160045260246000fd5b0217905550606082015181600201556080820151816003015560a0820151816004015560c0820151816005015560e08201518160060155505060008082805490501161242b57600061243d565b6001828054905061243c91906135d9565b5b90505b6000811115612af15760006001811115612483577f4e487b7100000000000000000000000000000000000000000000000000000000600052602160045260246000fd5b8560018111156124bc577f4e487b7100000000000000000000000000000000000000000000000000000000600052602160045260246000fd5b14801561256857508181815481106124fd577f4e487b7100000000000000000000000000000000000000000000000000000000600052603260045260246000fd5b9060005260206000209060070201600501548260018361251d91906135d9565b81548110612554577f4e487b7100000000000000000000000000000000000000000000000000000000600052603260045260246000fd5b906000526020600020906007020160050154115b1561257257612af1565b6001808111156125ab577f4e487b7100000000000000000000000000000000000000000000000000000000600052602160045260246000fd5b8560018111156125e4577f4e487b7100000000000000000000000000000000000000000000000000000000600052602160045260246000fd5b1480156126905750818181548110612625577f4e487b7100000000000000000000000000000000000000000000000000000000600052603260045260246000fd5b9060005260206000209060070201600501548260018361264591906135d9565b8154811061267c577f4e487b7100000000000000000000000000000000000000000000000000000000600052603260045260246000fd5b906000526020600020906007020160050154105b1561269a57612af1565b6000826001836126aa91906135d9565b815481106126e1577f4e487b7100000000000000000000000000000000000000000000000000000000600052603260045260246000fd5b906000526020600020906007020160405180610100016040529081600082015481526020016001820160009054906101000a900473ffffffffffffffffffffffffffffffffffffffff1673ffffffffffffffffffffffffffffffffffffffff1673ffffffffffffffffffffffffffffffffffffffff1681526020016001820160149054906101000a900460ff1660018111156127a6577f4e487b7100000000000000000000000000000000000000000000000000000000600052602160045260246000fd5b60018111156127de577f4e487b7100000000000000000000000000000000000000000000000000000000600052602160045260246000fd5b815260200160028201548152602001600382015481526020016004820154815260200160058201548152602001600682015481525050905082828154811061284f577f4e487b7100000000000000000000000000000000000000000000000000000000600052603260045260246000fd5b90600052602060002090600702018360018461286b91906135d9565b815481106128a2577f4e487b7100000000000000000000000000000000000000000000000000000000600052603260045260246000fd5b9060005260206000209060070201600082015481600001556001820160009054906101000a900473ffffffffffffffffffffffffffffffffffffffff168160010160006101000a81548173ffffffffffffffffffffffffffffffffffffffff021916908373ffffffffffffffffffffffffffffffffffffffff1602179055506001820160149054906101000a900460ff168160010160146101000a81548160ff0219169083600181111561297f577f4e487b7100000000000000000000000000000000000000000000000000000000600052602160045260246000fd5b02179055506002820154816002015560038201548160030155600482015481600401556005820154816005015560068201548160060155905050808383815481106129f3577f4e487b7100000000000000000000000000000000000000000000000000000000600052603260045260246000fd5b90600052602060002090600702016000820151816000015560208201518160010160006101000a81548173ffffffffffffffffffffffffffffffffffffffff021916908373ffffffffffffffffffffffffffffffffffffffff16021790555060408201518160010160146101000a81548160ff02191690836001811115612aa3577f4e487b7100000000000000000000000000000000000000000000000000000000600052602160045260246000fd5b0217905550606082015181600201556080820151816003015560a0820151816004015560c0820151816005015560e082015181600601559050508180612ae890613684565b92505050612440565b60056000815480929190612b04906136ae565b91905055505050505050505050565b600460009054906101000a900473ffffffffffffffffffffffffffffffffffffffff1681565b604051806040016040528060008019168152602001600073ffffffffffffffffffffffffffffffffffffffff1681525090565b600081359050612b7b81613769565b92915050565b600081519050612b9081613780565b92915050565b600081359050612ba581613797565b92915050565b600081359050612bba816137ae565b92915050565b600081359050612bcf816137be565b92915050565b60008060408385031215612be857600080fd5b6000612bf685828601612b6c565b9250506020612c0785828601612b96565b9150509250929050565b600060208284031215612c2357600080fd5b6000612c3184828501612b81565b91505092915050565b600060208284031215612c4c57600080fd5b6000612c5a84828501612b96565b91505092915050565b60008060408385031215612c7657600080fd5b6000612c8485828601612b96565b9250506020612c9585828601612b6c565b9150509250929050565b60008060408385031215612cb257600080fd5b6000612cc085828601612b96565b9250506020612cd185828601612bab565b9150509250929050565b600080600060608486031215612cf057600080fd5b6000612cfe86828701612b96565b9350506020612d0f86828701612bc0565b9250506040612d2086828701612bab565b9150509250925092565b600080600060608486031215612d3f57600080fd5b6000612d4d86828701612b96565b9350506020612d5e86828701612bc0565b9250506040612d6f86828701612bc0565b9150509250925092565b60008060008060808587031215612d8f57600080fd5b6000612d9d87828801612b96565b9450506020612dae87828801612bc0565b9350506040612dbf87828801612bc0565b9250506060612dd087828801612bab565b91505092959194509250565b600060208284031215612dee57600080fd5b6000612dfc84828501612bc0565b91505092915050565b60008060408385031215612e1857600080fd5b6000612e2685828601612bc0565b9250506020612e3785828601612b96565b9150509250929050565b6000612e4d8383613108565b6101008301905092915050565b6000612e6683836131aa565b60408301905092915050565b612e7b8161360d565b82525050565b612e8a8161360d565b82525050565b6000612e9b826134c6565b612ea581856134f6565b9350612eb0836134a6565b8060005b83811015612ee1578151612ec88882612e41565b9750612ed3836134dc565b925050600181019050612eb4565b5085935050505092915050565b6000612ef9826134d1565b612f038185613507565b9350612f0e836134b6565b8060005b83811015612f3f578151612f268882612e5a565b9750612f31836134e9565b925050600181019050612f12565b5085935050505092915050565b612f558161362b565b82525050565b612f648161362b565b82525050565b612f7381613672565b82525050565b612f8281613672565b82525050565b6000612f95600f83613518565b91507f62616c616e636520746f6f206c6f7700000000000000000000000000000000006000830152602082019050919050565b6000612fd5600a83613518565b91507f6f6e6c792061646d696e000000000000000000000000000000000000000000006000830152602082019050919050565b6000613015601083613518565b91507f63616e6e6f7420747261646520444149000000000000000000000000000000006000830152602082019050919050565b6000613055601583613518565b91507f746f6b656e2062616c616e636520746f6f206c6f7700000000000000000000006000830152602082019050919050565b6000613095601383613518565b91507f6461692062616c616e636520746f6f206c6f77000000000000000000000000006000830152602082019050919050565b60006130d5601983613518565b91507f7468697320746f6b656e20646f6573206e6f74206578697374000000000000006000830152602082019050919050565b6101008201600082015161311f60008501826131d9565b5060208201516131326020850182612e72565b5060408201516131456040850182612f6a565b5060608201516131586060850182612f4c565b50608082015161316b60808501826131d9565b5060a082015161317e60a08501826131d9565b5060c082015161319160c08501826131d9565b5060e08201516131a460e08501826131d9565b50505050565b6040820160008201516131c06000850182612f4c565b5060208201516131d36020850182612e72565b50505050565b6131e281613668565b82525050565b6131f181613668565b82525050565b600060208201905061320c6000830184612e81565b92915050565b60006060820190506132276000830186612e81565b6132346020830185612e81565b61324160408301846131e8565b949350505050565b600060408201905061325e6000830185612e81565b61326b60208301846131e8565b9392505050565b6000602082019050818103600083015261328c8184612e90565b905092915050565b600060208201905081810360008301526132ae8184612eee565b905092915050565b60006020820190506132cb6000830184612f5b565b92915050565b60006040820190506132e66000830185612f5b565b6132f36020830184612e81565b9392505050565b6000602082019050818103600083015261331381612f88565b9050919050565b6000602082019050818103600083015261333381612fc8565b9050919050565b6000602082019050818103600083015261335381613008565b9050919050565b6000602082019050818103600083015261337381613048565b9050919050565b6000602082019050818103600083015261339381613088565b9050919050565b600060208201905081810360008301526133b3816130c8565b9050919050565b60006020820190506133cf60008301846131e8565b92915050565b6000610100820190506133eb600083018b6131e8565b6133f8602083018a612e81565b6134056040830189612f79565b6134126060830188612f5b565b61341f60808301876131e8565b61342c60a08301866131e8565b61343960c08301856131e8565b61344660e08301846131e8565b9998505050505050505050565b600060a08201905061346860008301886131e8565b61347560208301876131e8565b61348260408301866131e8565b61348f60608301856131e8565b61349c60808301846131e8565b9695505050505050565b6000819050602082019050919050565b6000819050602082019050919050565b600081519050919050565b600081519050919050565b6000602082019050919050565b6000602082019050919050565b600082825260208201905092915050565b600082825260208201905092915050565b600082825260208201905092915050565b600061353482613668565b915061353f83613668565b9250827fffffffffffffffffffffffffffffffffffffffffffffffffffffffffffffffff03821115613574576135736136f7565b5b828201905092915050565b600061358a82613668565b915061359583613668565b9250817fffffffffffffffffffffffffffffffffffffffffffffffffffffffffffffffff04831182151516156135ce576135cd6136f7565b5b828202905092915050565b60006135e482613668565b91506135ef83613668565b925082821015613602576136016136f7565b5b828203905092915050565b600061361882613648565b9050919050565b60008115159050919050565b6000819050919050565b600081905061364382613755565b919050565b600073ffffffffffffffffffffffffffffffffffffffff82169050919050565b6000819050919050565b600061367d82613635565b9050919050565b600061368f82613668565b915060008214156136a3576136a26136f7565b5b600182039050919050565b60006136b982613668565b91507fffffffffffffffffffffffffffffffffffffffffffffffffffffffffffffffff8214156136ec576136eb6136f7565b5b600182019050919050565b7f4e487b7100000000000000000000000000000000000000000000000000000000600052601160045260246000fd5b7f4e487b7100000000000000000000000000000000000000000000000000000000600052602160045260246000fd5b6002811061376657613765613726565b5b50565b6137728161360d565b811461377d57600080fd5b50565b6137898161361f565b811461379457600080fd5b50565b6137a08161362b565b81146137ab57600080fd5b50565b600281106137bb57600080fd5b50565b6137c781613668565b81146137d257600080fd5b5056fea26469706673582212200f248c6963d6c6547264f524d8405d9945847252e4a4641ce79c35d47e7b990f64736f6c63430008000033",
  "immutableReferences": {},
  "source": "pragma solidity ^0.8.0;\r\n\r\nimport \"@openzeppelin/contracts/token/ERC20/IERC20.sol\";\r\n\r\ncontract Dex {\r\n    enum Side {\r\n        BUY,\r\n        SELL\r\n    }\r\n\r\n    struct Token {\r\n        bytes32 ticker;\r\n        address tokenAddress;\r\n    }\r\n\r\n    struct Order {\r\n        uint256 id;\r\n        address trader;\r\n        Side side;\r\n        bytes32 ticker;\r\n        uint256 amount;\r\n        uint256 filled;\r\n        uint256 price;\r\n        uint256 date;\r\n    }\r\n\r\n    mapping(bytes32 => Token) public tokens;\r\n    bytes32[] public tokenList;\r\n    mapping(address => mapping(bytes32 => uint256)) public traderBalances;\r\n    mapping(bytes32 => mapping(uint256 => Order[])) public orderBook;\r\n    address public admin;\r\n    uint256 public nextOrderId;\r\n    uint256 public nextTradeId;\r\n    bytes32 constant DAI = bytes32(\"DAI\");\r\n\r\n    event NewTrade(\r\n        uint256 tradeId,\r\n        uint256 orderId,\r\n        bytes32 indexed ticker,\r\n        address indexed trader1,\r\n        address indexed trader2,\r\n        uint256 amount,\r\n        uint256 price,\r\n        uint256 date\r\n    );\r\n\r\n    constructor() {\r\n        admin = msg.sender;\r\n    }\r\n\r\n    function getOrders(bytes32 ticker, Side side)\r\n        external\r\n        view\r\n        returns (Order[] memory)\r\n    {\r\n        return orderBook[ticker][uint256(side)];\r\n    }\r\n\r\n    function getTokens() external view returns (Token[] memory) {\r\n        Token[] memory _tokens = new Token[](tokenList.length);\r\n        for (uint256 i = 0; i < tokenList.length; i++) {\r\n            _tokens[i] = Token(\r\n                tokens[tokenList[i]].ticker,\r\n                tokens[tokenList[i]].tokenAddress\r\n            );\r\n        }\r\n        return _tokens;\r\n    }\r\n\r\n    function addToken(bytes32 ticker, address tokenAddress) external onlyAdmin {\r\n        tokens[ticker] = Token(ticker, tokenAddress);\r\n        tokenList.push(ticker);\r\n    }\r\n\r\n    function deposit(uint256 amount, bytes32 ticker)\r\n        external\r\n        tokenExist(ticker)\r\n    {\r\n        IERC20(tokens[ticker].tokenAddress).transferFrom(\r\n            msg.sender,\r\n            address(this),\r\n            amount\r\n        );\r\n        traderBalances[msg.sender][ticker] += amount;\r\n    }\r\n\r\n    function withdraw(uint256 amount, bytes32 ticker)\r\n        external\r\n        tokenExist(ticker)\r\n    {\r\n        require(\r\n            traderBalances[msg.sender][ticker] >= amount,\r\n            \"balance too low\"\r\n        );\r\n        traderBalances[msg.sender][ticker] -= amount;\r\n        IERC20(tokens[ticker].tokenAddress).transfer(msg.sender, amount);\r\n    }\r\n\r\n    function createLimitOrder(\r\n        bytes32 ticker,\r\n        uint256 amount,\r\n        uint256 price,\r\n        Side side\r\n    ) external tokenExist(ticker) tokenIsNotDai(ticker) {\r\n        if (side == Side.SELL) {\r\n            require(\r\n                traderBalances[msg.sender][ticker] >= amount,\r\n                \"token balance too low\"\r\n            );\r\n        } else {\r\n            require(\r\n                traderBalances[msg.sender][DAI] >= amount * price,\r\n                \"dai balance too low\"\r\n            );\r\n        }\r\n        Order[] storage orders = orderBook[ticker][uint256(side)];\r\n        orders.push(\r\n            Order(\r\n                nextOrderId,\r\n                msg.sender,\r\n                side,\r\n                ticker,\r\n                amount,\r\n                0,\r\n                price,\r\n                block.timestamp\r\n            )\r\n        );\r\n\r\n        uint256 i = orders.length > 0 ? orders.length - 1 : 0;\r\n        while (i > 0) {\r\n            if (side == Side.BUY && orders[i - 1].price > orders[i].price) {\r\n                break;\r\n            }\r\n            if (side == Side.SELL && orders[i - 1].price < orders[i].price) {\r\n                break;\r\n            }\r\n            Order memory order = orders[i - 1];\r\n            orders[i - 1] = orders[i];\r\n            orders[i] = order;\r\n            i--;\r\n        }\r\n        nextOrderId++;\r\n    }\r\n\r\n    function createMarketOrder(\r\n        bytes32 ticker,\r\n        uint256 amount,\r\n        Side side\r\n    ) external tokenExist(ticker) tokenIsNotDai(ticker) {\r\n        if (side == Side.SELL) {\r\n            require(\r\n                traderBalances[msg.sender][ticker] >= amount,\r\n                \"token balance too low\"\r\n            );\r\n        }\r\n        Order[] storage orders = orderBook[ticker][\r\n            uint256(side == Side.BUY ? Side.SELL : Side.BUY)\r\n        ];\r\n        uint256 i;\r\n        uint256 remaining = amount;\r\n\r\n        while (i < orders.length && remaining > 0) {\r\n            uint256 available = orders[i].amount - orders[i].filled;\r\n            uint256 matched = (remaining > available) ? available : remaining;\r\n            remaining -= matched;\r\n            orders[i].filled += matched;\r\n            emit NewTrade(\r\n                nextTradeId,\r\n                orders[i].id,\r\n                ticker,\r\n                orders[i].trader,\r\n                msg.sender,\r\n                matched,\r\n                orders[i].price,\r\n                block.timestamp\r\n            );\r\n            if (side == Side.SELL) {\r\n                traderBalances[msg.sender][ticker] -= matched;\r\n                traderBalances[msg.sender][DAI] += matched * orders[i].price;\r\n                traderBalances[orders[i].trader][ticker] += matched;\r\n                traderBalances[orders[i].trader][DAI] -= orders[i].price;\r\n            }\r\n            if (side == Side.BUY) {\r\n                require(\r\n                    traderBalances[msg.sender][DAI] >=\r\n                        matched * orders[i].price,\r\n                    \"dai balance too low\"\r\n                );\r\n                traderBalances[msg.sender][ticker] += matched;\r\n                traderBalances[msg.sender][DAI] -= matched * orders[i].price;\r\n                traderBalances[orders[i].trader][ticker] -= matched;\r\n                traderBalances[orders[i].trader][DAI] +=\r\n                    matched *\r\n                    orders[i].price;\r\n            }\r\n            nextTradeId++;\r\n            i++;\r\n        }\r\n\r\n        i = 0;\r\n        while (i < orders.length && orders[i].filled == orders[i].amount) {\r\n            for (uint256 j = i; j < orders.length - 1; j++) {\r\n                orders[j] = orders[j + 1];\r\n            }\r\n            orders.pop();\r\n            i++;\r\n        }\r\n    }\r\n\r\n    modifier tokenIsNotDai(bytes32 ticker) {\r\n        require(ticker != DAI, \"cannot trade DAI\");\r\n        _;\r\n    }\r\n\r\n    modifier tokenExist(bytes32 ticker) {\r\n        require(\r\n            tokens[ticker].tokenAddress != address(0),\r\n            \"this token does not exist\"\r\n        );\r\n        _;\r\n    }\r\n\r\n    modifier onlyAdmin() {\r\n        require(msg.sender == admin, \"only admin\");\r\n        _;\r\n    }\r\n}\r\n",
  "sourcePath": "C:\\Users\\eduar\\Documents\\Cursos\\Blockchain\\Eat the Blocks\\6-Figure Blockchain Developer\\Projects\\dex\\contracts\\Dex.sol",
  "compiler": {
    "name": "solc",
    "version": "0.8.0+commit.c7dfd78e.Emscripten.clang"
  },
  "schemaVersion": "3.4.7",
  "updatedAt": "2022-06-12T14:10:17.688Z",
  "networkType": "ethereum",
  "devdoc": {
    "kind": "dev",
    "methods": {},
    "version": 1
  },
  "userdoc": {
    "kind": "user",
    "methods": {},
    "version": 1
  }
}